:020000040800F2
:10000000500C0020710200089B2600089F23000866
:1000100099260008A5040008E92D0008000000004A
:10002000000000000000000000000000B101000816
:100030007D050008000000000D02000835270008BB
:100040008B0200088B0200088B0200082927000899
:100050008B0200088B0200088B0200088B0200084C
:100060008B0200088B0200088B0200088B0200083C
:100070008B0200088B0200088B0200088B0200082C
:100080008B0200088B0200088B02000800000000B1
:100090000000000000000000000000008B020008CB
:1000A0008B020008ED2700088B0200088B02000875
:1000B0008B0200088B0200088B0200088B020008EC
:1000C0008B0200088B0200088B0200088B020008DC
:1000D0008B020008A92D00088B0200080000000018
:1000E000810500088B0200088B0200080000000058
:1000F000000000000000000000000000A90400084B
:10010000000000008B0200088B0200088B02000830
:1001100000000000000000000000000000000000DF
:100120008B0200088B020008B50400088B0200084F
:100130008B0200080000000000000000000000002A
:100140000000000000000000000000008B0200081A
:10015000C10400088B020008CD0400088B020008CF
:100160008B0200088B020008000000000000000065
:10017000000000000000000000000000000000007F
:10018000000000008B0200080000000000000000DA
:100190008B0200088B020008DFF810D000F0DCF8BA
:1001A00000480047292E0008AFF30080500C0020C3
:1001B0002C4B19680868B0E8F04F80F30988BFF34A
:1001C0006F8F4FF0000080F311887047000000002F
:1001D00008480068006880F308884FF0000080F34A
:1001E000148862B661B6BFF34F8FBFF36F8F00DF25
:1001F00000BF00BF08ED00E0DFF80C00016841F42B
:1002000070010160704700BF88ED00E0EFF30980E6
:10021000BFF36F8F134B1A681EF0100F08BF20ED4D
:10022000108A20E9F04F106009B44FF0500080F3BD
:100230001188BFF34F8FBFF36F8F02F019FE4FF09D
:10024000000080F3118809BC19680868B0E8F04F15
:100250001EF0100F08BFB0EC108A80F30988BFF3BE
:100260006F8F704714000020EFF305807047000087
:100270000648804706480047FEE7FEE7FEE7FEE740
:10028000FEE7FEE7FEE7FEE7FEE7FEE7DD27000804
:10029000990100082DE9F05F0546002092469B4633
:1002A00088460646814640241BE02846414647468C
:1002B000224600F041F853465A46C01A914110D3E5
:1002C00011461846224600F028F82D1A67EB01085F
:1002D0004F4622460120002100F01FF817EB0009CD
:1002E0004E41201EA4F10104DFDC484631462A4677
:1002F0004346BDE8F09FD2B201E000F8012B491E51
:10030000FBD270470022F6E710B513460A460446B2
:100310001946FFF7F0FF204610BD202A04DB203AE3
:1003200000FA02F1002070479140C2F1200320FA48
:1003300003F3194390407047202A04DB203A21FA46
:1003400002F00021704721FA02F3D040C2F12002EE
:100350009140084319467047064C074D06E0E06897
:1003600040F0010394E8070098471034AC42F6D3FC
:10037000FFF716FF84300008A4300008464910B586
:100380004A6822F440324A604A6843681A434A6025
:1003900001684A6822F480724A6001684A68036909
:1003A00042EA03224A6001684A6822F040724A60C9
:1003B00001684A6883681A434A6001688A6822F4BF
:1003C00000628A6001688A68C3681A438A60816A29
:1003D0006FF07062D14201688A6822F070628A60B0
:1003E00001688A680CD0836A1A438A6001688A6847
:1003F00022F040528A6001688A68C36A1A4301E0A9
:1004000022F040528A6001688A6822F002028A6003
:1004100001688A68037E42EA43028A6090F82010ED
:10042000002901684A680FD042F400624A600168FE
:100430004A6822F460424A6001684A68174C436A7D
:1004400004EB43331A4301E022F400624A6001687E
:10045000CA6A22F47002CA620168CA6A838B104CAD
:1004600004EB03531A43CA6201688A6822F40072DB
:100470008A6001688A6890F8303042EA43228A60D4
:1004800001688A6822F480628A6001688A6840692B
:1004900042EA8020886010BD0023014000E0FFFF99
:1004A0000000F0FFFEE70000014800F0DBB90000AB
:1004B000BC010020014800F0D5B900001401002063
:1004C000014800F0CFB9000064020020014800F0AC
:1004D000C9B90000C402002001681823CAB2103A4A
:1004E000B2FBF3F2054B6FF30901032A9B5CC36572
:1004F00000D9091D81650846704700006430000876
:1005000010B5014600208B698A6A4FF0C07453B160
:10051000B3F5005F15D072B1012A0CD0022A0AD0BF
:10052000032A09D104E01AB1012A06D0022A03D114
:10053000C96AC90100D5012010BDC96AA142FAD01B
:1005400010BD002AF7D0012AF2D0022AF3D0032AE4
:10055000F3D010BD30B50468256825F480252560EA
:10056000046863608368402B036803D09960006867
:10057000C26030BD9A600068C16030BD7047000045
:10058000024901200870000300F0DEBA00000020DC
:1005900072B6FEE778B50024009490F83C20012A5A
:1005A00019D0012280F83C200A6807230568092A2F
:1005B00013D9EE680A3A02EB420293409E43EE6082
:1005C0000B788A680A3B03EB43039A400368DD68B3
:1005D0002A43DA6010E0022078BD2E6902EB420265
:1005E00093409E432E610B788A6803EB43039A4045
:1005F00003681D692A431A614A681F23072A13D218
:1006000005686E6B521E02EB820293409E436E633E
:100610000A8893B20A79521E02EB82029340026862
:10062000556B2B43536327E005680D2A12D22E6BBE
:10063000D21F02EB820293409E432E630B790A88FD
:10064000DB1F92B203EB83039A4003681D6B2A43BE
:100650001A6311E0EE6A0D3A02EB820293409E4368
:10066000EE620B790A880D3B92B203EB83039A404A
:100670000368DD6A2A43DA621B4B0568194A9D420A
:100680000AD10D68122D07D1556825F40005556073
:10069000556845F48005556005689D421DD1134D90
:1006A0000B68AB4201D0112B17D1536823F48003A0
:1006B0005360536843F4000353600968A9420CD1A6
:1006C0000B490C4A0968B1FBF2F101EB81014900C9
:1006D00000E0491E00910029FBD180F83C40002039
:1006E00078BD0000002301400020014012000010EE
:1006F0001000002040420F0070B504004FF00005CC
:1007000003D0206C002610B107E0012070BD204608
:1007100000F01CF8666484F83C60206CC00610D4BD
:10072000206C20F4885040F0020020642046FFF73F
:1007300025FE6664206C20F0020040F00100206479
:1007400000E0012584F83C60284670BD10B586B0F5
:10075000044614216846FFF7D5FD114920688842F8
:100760001CD110480021026842F4807202600068C7
:1007700000F4807005900B481438026842F00102C2
:100780000260006800F00100059002200090032044
:10079000CDE901016946044800F0E2F906B010BD58
:1007A0000020014044380240000002402DE9F041A1
:1007B0000446876D00F0CAFA064694F83500002515
:1007C000022806D08020606584F834500120BDE8FE
:1007D000F0812068016821F01601016020684169FC
:1007E00021F080014161206C08B9A06C20B1206823
:1007F000016821F0080101602068016821F0010111
:1008000001600CE000F0A2FA801B052807D9202027
:100810006065032084F8350084F83450D7E72068F9
:100820000068C007EED194F85C103F208840B860A3
:10083000012084F8350084F834500020C7E790F890
:100840003510022903D08021416501207047052120
:1008500080F835100068016821F001010160002076
:10086000704700002DE9F84304464FF00009CDF829
:10087000009063484FF41651A56D0068B0FBF1F786
:100880002E6894F85C10082000FA01F131420FD074
:1008900021680A6852070BD50A6822F004020A6030
:1008A00094F85C108840A860606D40F001006065BD
:1008B00094F85C104FF0010808FA01F0304208D0BB
:1008C00021684969090604D5A860606D40F00200FE
:1008D000606594F85C1004208840304208D021689C
:1008E0000968890704D5A860606D40F00400606560
:1008F00094F85C1010208840304218D021680968B4
:10090000090714D5A86020680168490304D5006868
:10091000000308D5A16C07E00168C90503D401688C
:1009200021F008010160216C09B12046884794F844
:100930005C1020208840304231D021680968C90607
:100940002DD5A86094F8350005282068016806D0E8
:10095000490347D5006800031DD4616C1CE021F0F9
:10096000160101602068416921F080014161206C1D
:1009700008B9A06C20B12068016821F0080101606D
:1009800094F85C103F208840A86084F8358084F893
:100990003490216D1FE0E16B09B120468847606DFE
:1009A00000282BD0606DC00714D0052084F83500D6
:1009B0002068016821F0010101600098401C00904E
:1009C000B84203D820680068C007F6D184F83580A3
:1009D00084F83490E16C002910D001B02046BDE8C5
:1009E000F04308470168C905D5D4016821F010011A
:1009F000016084F8358084F83490CCE7BDE8F88352
:100A0000100000202DE9F041044600F09FF9064651
:100A10005CB1022084F83500002584F83450206849
:100A2000016821F0010101600DE00120BDE8F081C5
:100A300000F08CF9801B052805D920206065032073
:100A400084F83500F2E720680068C007F0D122681A
:100A5000116820480140D4E901031843D4E9033662
:100A60003343184363691843A3691843E369184380
:100A7000236A18430843616A042903D1D4E90B139C
:100A800019430843106020684069666A20F0070136
:100A900030460E43012704280CD1A06A0643E06AC1
:100AA00040B12046FFF72CFD20B14020606584F85E
:100AB0003570BAE7206846612046FFF70DFD94F8CF
:100AC0005C203F2191408160656584F8357000208D
:100AD000ACE700003F8010F02DE9F0410446866D40
:100AE00090F83400002501280DD0012084F834004E
:100AF00094F835700020012F07D084F834000225C7
:100B00002846BDE8F0810220FBE7022784F8357013
:100B100060652046FFF71EFD94F85C103F2088407A
:100B2000B0602068016841F016010160206C20B1BE
:100B30002068016841F0080101602068016841F007
:100B400001010160DCE77047044910B50A68024200
:100B500002D00860FFF7F7FF10BD0000143C014011
:100B60002DE9F84FDFF8B8A10022012403254FF04A
:100B70000F090AF1040BAAF1040E00BF0B6804FA76
:100B800002F63340B34273D10F7907F00307012F08
:100B900001D0022F16D187684FEA420805FA08FCF7
:100BA00027EA0C07D1F80CC00CFA08FC4CEA070C39
:100BB000C0F808C04768B7430E79C6F300169640E0
:100BC0003E4346600E79F643B6070DD0C76856001F
:100BD00005FA06FC27EA0C07D1F808C00CFA06FC57
:100BE0004CEA070CC0F80CC00E7906F00306022E82
:100BF00010D1D60800EB8608D8F8206057074FEAD6
:100C0000D76C09FA0CF7BE430F6907FA0CF73743A4
:100C1000C8F8207006684FEA420C05FA0CF7BE438C
:100C20000F7907F0030707FA0CF7374307604E68A0
:100C300016F4403F6DD03B4E376847F4804737602D
:100C4000366822F0030706F480460096364E07EB1E
:100C5000060CDCF8086897073F0F09FA07F826EA40
:100C60000806DFF8C880404503D14FF000081EE0B9
:100C70004FE0DFF8BC80404502D14FF0010816E09C
:100C8000DFF8B080404502D14FF002080FE0DFF8F6
:100C9000A880404502D14FF0030808E0DFF89C80AF
:100CA000404502D14FF0040801E04FF0070808FA70
:100CB00007F848EA0608CCF80888DAF800605746D2
:100CC000D1F804C09E435FEACC2C00D51E433E60A1
:100CD000DBF800605F46D1F804C09E435FEA8C2CCD
:100CE00000D51E433E60DEF800607746D1F804C0B0
:100CF0009E435FEA8C3C00D51E433E60084F083F90
:100D00003E68D1F804C09E435FEACC3C00D51E4348
:100D10003E60521C102AFFF431AFBDE8F88F00008E
:100D2000083C0140443802400030014000000240CD
:100D30000004024000080240000C02400010024083
:100D40000AB1816170470904FBE70000014880682F
:100D500070470000040000200248816802781144B6
:100D600081607047040000200B4810B5016841F411
:100D700000710160016841F480610160016841F423
:100D800080710160032000F095F8012000F006F862
:100D900000F04AF8002010BD003C024030B5054686
:100DA0001C4887B00024016841F00101016000681F
:100DB00006A900F00100009001A800F0D1F900F0B0
:100DC000FFF91549154AB0FBF1F11548491E0260BB
:100DD00040F2E732C0E90324C0E90114846100F065
:100DE000B9FE040012D10E4800F0E2FE04000DD15D
:100DF000192000F031F8102D07D2002229461920C1
:100E000000F038F80748056000E0012407B02046EC
:100E100030BD00004438024040420F000000014055
:100E200040030020080000200A4808B5016841F48A
:100E300080410160006800F4804000900548001F78
:100E4000016841F080510160006800F0805000901E
:100E500008BD000044380240002809DB00F01F02F2
:100E6000012191404009800000F1E020C0F800110C
:100E700070470000F0B40E4B1B680C46C3F302230E
:100E8000C3F10705042D00D90425191D072901D236
:100E9000002300E0DB1E012606FA05F1491E214071
:100EA00099409E40761E16403143F0BC01F09DBF34
:100EB0000CED00E0064900F0070208684FF6FF035A
:100EC000184040EA0220034A1043086070470000BF
:100ED0000CED00E00000FA052DE9F8430446006837
:100EE0004FF00109C1074FF0000601D1400729D595
:100EF000DFF82081C8F86860FFF728FF0746464DF5
:100F000005E000BFFFF722FFC01B022859D8286860
:100F10000001F7D4A068217B800140EA017061687C
:100F200008433D4984310860C8F86890FFF70EFF18
:100F3000074604E0FFF70AFFC01B022841D82868D3
:100F40000001F7D52078800752D53348403001683A
:100F500041F0805101600068304D00F080500090F9
:100F6000286840F480702860FFF7F0FE074604E030
:100F7000FFF7ECFEC01B022823D82868C005F7D570
:100F8000254D7035286810F4407020D0218A01F476
:100F9000407181421BD02868214920F44070C1F87B
:100FA00000900E6028602868C00710D0FFF7CEFEC2
:100FB000064641F2883707E0FFF7C8FE801BB842BB
:100FC00002D90320BDE8F88328688007F4D5216999
:100FD0001148C1F301220830032A12D0016821F41C
:100FE000F81101602868218AC1F30B0108432860C9
:100FF0002078000703D50B49207DC1F8E0010020CF
:10100000E0E70268084B22F4F81219400A43026034
:10101000E8E700000000474200380240007000404E
:10102000400E474200104742FFFCFF0F2DE9F047FA
:101030000E46050065D0DFF81481D8F80000F7B23D
:1010400000F00700B04207D288F80070D8F800001E
:1010500000F00700B04254D128683D4C810712D5FA
:10106000400703D5206840F4E0502060287800074E
:1010700003D5206840F4604020602068A96820F013
:10108000F000084320602878C0072DD030496868F8
:101090000839012812D0022813D0032811D009687A
:1010A000890700292DDA216821F00301014321601D
:1010B000FFF74CFE814641F2883A0EE00968890349
:1010C000EFE709688901ECE7FFF740FEA0EB0901B3
:1010D000514502D90320BDE8F0872068696800F017
:1010E0000C00B0EB810FEFD1D8F80010404601F0B2
:1010F0000701B14207D90770006800F00700B0424D
:1011000001D00120E7E72878400705D52068E96885
:1011100020F4E050084320602878000706D52068B6
:10112000296920F4604040EAC100206000F058F8CE
:101130002168084AC1F30311515CC84006490860A0
:1011400006480068FFF72AFE0020C4E7003C024082
:10115000083802406C300008100000200800002011
:101160000F2202600C4A136803F003034360136804
:1011700003F0F0038360136803F4E053C360126864
:101180004FF4E05303EAD20202610448006800F021
:10119000070008607047000008380240003C024029
:1011A0000448054900680968044AC1F38221515C7A
:1011B000C840704710000020083802407C3000080A
:1011C0000448054900680968044AC1F34231515C8A
:1011D000C840704710000020083802407C300008EA
:1011E000154810B5006810F00C02144813D01449CB
:1011F000042A0FD0082A0ED10F4C241F226823681E
:1012000002F03F025B0207D52068C0F38810A0FB04
:10121000010106E0084610BD2168C1F38811A1FB59
:1012200000010023FFF736F82168C1F30141491C92
:101230004900B0FBF1F010BD083802400024F40072
:1012400040787D012DE9F84F04006ED02078DFF85A
:101250004C93C007A9F104054AD009F104000168C4
:10126000C1F38101012908D00068C0F38100022880
:101270000AD1D9F80000400206D52868800337D586
:1012800060680028E1D033E06068B0F5803F10D09E
:10129000B0F5A02F286810D020F48030286028688E
:1012A00020F4802028606068A8B1FFF74FFD064653
:1012B0000DE0286840F48030F4E740F48020286096
:1012C000F7E700BFFFF742FD801B642873D828684A
:1012D0008003F7D50CE0FFF739FD064605E000BFB7
:1012E000FFF734FD801B6428F0D828688003F7D40A
:1012F0002078DFF8AC8280074FF0000A3ED5A7487F
:10130000001D016811F00C0F08D00068C0F38100C7
:1013100002280BD1D9F80000400207D428688007C2
:1013200016D5E068012800D112E033E1E068B8B1D9
:101330000120C8F80000FFF709FD064605E000BFE0
:10134000FFF704FD801B0228C0D828688007F7D566
:101350002868216920F0F80040EAC10028600DE00B
:10136000C8F800A0FFF7F2FC064604E0FFF7EEFC29
:10137000801B02281FD828688007F7D42078000730
:1013800022D5864F87486169703771B101210160AC
:10139000FFF7DCFC064604E0FFF7D8FC801B0228C0
:1013A00009D838688007F7D50EE0C0F800A0FFF72D
:1013B000CDFC064605E082E0FFF7C8FC801B022852
:1013C0007DD838688007F7D42078400768D5DFF8E3
:1013D000CCB100270BF13C0BDBF80000C0000BD4B4
:1013E000DBF8001041F08051CBF80010DBF8000072
:1013F000012700F0805000906B4E3068C00510D47B
:10140000306840F480703060FFF7A0FC009005E089
:10141000FFF79CFC0099401A022850D83068C0059C
:10142000F6D55E4EA0686C3601280FD005283068CE
:1014300010D020F001003060306820F004003060EF
:10144000A068B8B1FFF782FC00900FE0306840F070
:101450000100F4E740F004003060F7E7FFF776FCA6
:101460000099411A41F28830814266D8306880077D
:10147000F4D50EE0FFF76AFC009007E0FFF766FC8A
:101480000099411A41F28830814256D8306880076D
:10149000F4D42FB1DBF8001021F08051CBF800100C
:1014A000A069C8B33D49091D0968C1F3810102293A
:1014B0004AD00228504607D0C8F8600000E03CE05F
:1014C000FFF744FC04463BE04746C8F86000FFF7DE
:1014D0003DFC064605E000BFFFF738FC801B0228F4
:1014E0002BD828688001F7D4D4E907010843A16A02
:1014F0002E4A490802EB0141626A41EA821108431F
:1015000094F82C1040EA0161C9F8001001203866F7
:10151000FFF71CFC044606E03EE000BFFFF716FCA8
:10152000001B022809D828688001F7D534E000BFE5
:10153000FFF70CFC001B022802D90320BDE8F88F3E
:1015400028688001F4D427E00128F7D0D9F80000FA
:10155000E26900F4800191421CD1226A00F03F014F
:10156000914217D147F6C071626A0140B1EB821F08
:1015700010D1A26A4FF0FF3300F4403103EB520266
:10158000B1EB024F06D194F82C1000F07060B0EB74
:10159000016F01D00120D1E70020CFE704380240DD
:1015A00000004742800E4742007000400000FFFFED
:1015B0000068503050F8210070470068503040F803
:1015C000212070472DE9F84389463D494FF4FA4CF4
:1015D0004FF47A730F68B7FBFCF159430091017F18
:1015E000012965D001250577022141770368CA21C9
:1015F000596203685321596201688B684FF0FF04F8
:101600005FEA43584FF000034FF003060CD500BFCC
:10161000DDF80080B8F10108CDF800804AD0D1F89B
:101620000C805FEA4878F3D4D1F8088028F4806809
:10163000C1F808800168D1F80C8008F0800868F4CF
:101640009068C1F80C80B7FBFCF14FF47A777943CE
:1016500000910168009F7F1E00972BD0CF687F0705
:10166000F8D58E6826F007068E6001688E681643EE
:101670008E600268C2F8149012490A6842F480022F
:101680000A60104908310A6842F480020A60016861
:101690008A6842F480428A6001688A6842F4806203
:1016A0008A6001684C62457703770020BDE8F883C3
:1016B0000220FBE74C62467703770320F6E7000041
:1016C00010000020003C01407047000010B50A499E
:1016D00004464FF4800008602068C168490508D5B9
:1016E000C16801F0800161F49061C1602046FFF79C
:1016F000EBFF0120607710BD143C014010B50400E1
:1017000002D0607F10B106E0012010BD00202077DC
:10171000204600F041F8022060772068C168C94384
:10172000C90632D5CA214162216853204862204649
:1017300000F0C0FF20BB20688168164A114081601C
:101740002168886862681043D4E904231A4310436F
:1017500088602168E068086120680169228941EA9F
:1017600002410161204600F0C9FF48B921680A6CB6
:1017700022F480220A6421680A6CA3691A430A646D
:101780002268FF21516208B110BD0020012161775C
:1017900010BD0000BFFF8FFF10B586B004461821B2
:1017A0006846FEF7AFFD0D492068884214D102203B
:1017B0000090000204906846FFF78EFB08B1FEF728
:1017C000E7FE074901200860002205210320FFF7FA
:1017D00051FB0320FFF740FB06B010BD002800407E
:1017E0003C0E474270B50446007F0B46012819D0D5
:1017F0000126267702206077B2B19878D97840EA3E
:10180000014558781978000240EA413005432168C3
:10181000CA204862216853204862204600F04AFFEF
:10182000D0B122E0022070BD5878C10603D500F087
:10183000EF000A305870D87800F030FF0204587872
:1018400000F02CFF42EA0022987800F027FF0243C4
:10185000187842EA4035DAE70748054020684560D5
:10186000204600F04BFF00B966772268FF215162E5
:101870000021217770BD00003FFFFF002DE9F041FE
:101880000446007F0D46012823D04FF0010884F85C
:101890001C80022060772068002780684FEA406043
:1018A000D2B1002800DBEF70A878297840EA014621
:1018B0006878E978000240EA815006432168CA202E
:1018C0004862216853204862204600F0F3FEB8B118
:1018D0002CE00220BDE8F081002800DBEF702878C2
:1018E00000F0DCFE0204687800F0D8FE42EA002234
:1018F000A87800F0D3FE0243E87842EA8056DDE79C
:101900000D480640206806602068816821F4802127
:101910008160D5E90301084321688A681043886023
:10192000204600F0EBFE08B984F81D802268FF21F4
:1019300051622777CEE700007F7F7F0070B50446B5
:101940000B482168C860FFF701FA05464FF47A7624
:1019500007E000BFFFF7FAF9401BB04201D90320AE
:1019600070BD2068C0688006F4D5002070BD0000FE
:101970005F3F010070B5040009D0606A002540B1E6
:1019800025616561A56294F8510040B10CE0012029
:1019900070BD6068B0F5827FF4D0E561F2E784F84D
:1019A0005050204600F044F8022084F8510020688E
:1019B000016821F040010160A088218900F4827053
:1019C00001F404410843A18901F400610843217C2A
:1019D00001F002010843217D01F001010843218B40
:1019E00001F400710843217F01F03801084394F8A5
:1019F000201001F080010843218D01F400510843BB
:101A000021680860A069042101EA104094F82410BC
:101A100001F010010843216848602068C16921F481
:101A20000061C1616565012084F85100002070BD2E
:101A300070B586B0064614216846FEF763FC20495F
:101A4000306888423AD11F480025016841F480512E
:101A50000160006800F4805005901A48143801684D
:101A600041F0020101600068694600F00200059043
:101A7000282000900220CDE90105032003900520D5
:101A800004901148FFF76CF8114C104820604FF09B
:101A9000806060604020C4E90205000120614000D0
:101AA00060618000C4E90605256220466562FEF794
:101AB000A9FF08B1FEF76CFDB464A66306B070BD63
:101AC00000300140443802400004024040640240BB
:101AD000140100207047704770B590F83C20012A2F
:101AE0002CD0012480F83C40022280F83D2003687D
:101AF0005A689D6822F070060A6832435A60104B9B
:101B000002689A420ED0B2F1804F0BD00D4B9A4230
:101B100008D00D4B9A4205D00C4B9A4202D00C4B88
:101B20009A4204D1496825F080031943916080F8F6
:101B30003D40002180F83C10084670BD022070BD79
:101B4000000001400004004000080040000C00407C
:101B50000040014010B5040003D094F83D0010B1DE
:101B600007E0012010BD002084F83C00204600F072
:101B70001EF8022084F83D00211D206800F03CFE84
:101B8000012084F8460084F83E0084F83F0084F881
:101B9000400084F8410084F8420084F8430084F84F
:101BA000440084F8450084F83D00002010BD7047D3
:101BB00090F83D10012901D001207047022180F8E2
:101BC0003D100168CA6842F00102CA6000680E490F
:101BD00088420ED0B0F1804F0BD00C49884208D01B
:101BE0000B49884205D00B49884202D00A498842F5
:101BF00004D1816801F00701062903D0016841F092
:101C00000101016000207047000001400004004015
:101C100000080040000C00400040014070472DE9E2
:101C2000F04104460068C66805694FF00007A9073F
:101C300013D5B10711D5F91E016101202077206865
:101C400080698007204602D0FFF7E8FF04E000F03B
:101C5000A7F8204600F06CF92777680716D57007BB
:101C600014D521686FF004000861022020772068F5
:101C7000806910F4407F204602D0FFF7CFFF04E0D8
:101C800000F08EF8204600F053F92777280715D585
:101C9000300713D521686FF0080008610420207711
:101CA0002068C0698007204602D0FFF7B7FF04E034
:101CB00000F076F8204600F03BF92777E80616D5C5
:101CC000F00614D521686FF0100008610820207715
:101CD0002068C06910F4407F204602D0FFF79EFFC5
:101CE00004E000F05DF8204600F022F92777E807CD
:101CF00008D0F00706D021686FF001000861204687
:101D000000F018F9280608D5300606D521686FF0CE
:101D1000800008612046FFF7DDFE680608D57006E2
:101D200006D521686FF040000861204600F00CF9EC
:101D3000A8060AD5B00608D521686FF02000086112
:101D40002046BDE8F041FFF7C6BEBDE8F0810000C7
:101D500010B586B0044614216846FEF7D3FA0D4943
:101D60002068884214D10C480021026842F0020227
:101D70000260006800F0020005900120009002203F
:101D8000CDE90101CDE9031069460448FEF7E8FEFC
:101D900006B010BD0004004030380240000402408C
:101DA000704770B5044690F83C0000260D460128A7
:101DB0000FD0012084F83C006AB1042A1DD0082A03
:101DC0002FD00C2A3FD00126002084F83C0030465A
:101DD00070BD022070BD206800F060FD2068816940
:101DE00041F0080181612068816921F0040181616D
:101DF000206881692A69114311E0206800F076FDAE
:101E00002068816941F4006181612068816921F461
:101E100080618161206881692A6941EA02218161CA
:101E2000D2E7206800F08EFD2068C16941F008010A
:101E3000C1612068C16921F00401C1612068C169E4
:101E40002A69114311E0206800F0A8FD2068C169EB
:101E500041F40061C1612068C16921F48061C16100
:101E60002068C1692A6941EA0221C161ACE710B565
:101E7000040003D094F83D0010B107E0012010BD2C
:101E8000002084F83C00204600F01EF8022084F870
:101E90003D00211D206800F0AFFC012084F84600C1
:101EA00084F83E0084F83F0084F8400084F8410044
:101EB00084F8420084F8430084F8440084F8450024
:101EC00084F83D00002010BD38B50546006814496F
:101ED000884223D113480021026842F002020260C6
:101EE0000068124C00F0020000900F4820604FF094
:101EF0002060C4E901014FF48060C4E90310400090
:101F000060618000C4E90601216220466162FEF73B
:101F100079FD08B1FEF73CFBEC62A56338BD00001B
:101F20000004004040380240B8600240BC0100207C
:101F30007047000000680349884201D1FEF70CBFDA
:101F400070470000000001407047704710B504461C
:101F50000068406994F84110C0F3C010212911D1E4
:101F600080B12068143050E8001F21F0800140E863
:101F70000012002AF5D1A06B08B1FEF717FC20462D
:101F800000F0D4FD2068406994F84210C0F380103E
:101F9000222911D180B12068143050E8001F21F0AF
:101FA000400140E80012002AF5D1E06B08B1FEF7CD
:101FB000FDFB204600F093FD002010BD704700009F
:101FC000F8B5016804460868CA684B6910F00F0F3D
:101FD0004FF0000559D003F0010602F49077374323
:101FE00065D0C10705D0D10503D5616C41F0010171
:101FF0006164410705D5D90703D0616C41F0020146
:102000006164810705D5D90703D0616C41F00401F3
:102010006164010707D502F02001314303D0616CF0
:1020200041F008016164616C00293AD0800604D552
:10203000900602D5204600F087FD20684069616C5B
:10204000C0F38010090700D460B3204600F047FDBC
:1020500020684069400621D52068143050E8001FF0
:1020600021F0400140E80012002AF5D1E06BA8B150
:102070006E490165E06BFEF7E2FB002811D0E06BD2
:10208000016D01B0BDE8F040084783060FD5930607
:102090000DD52046BDE8F84000F056BD2046FFF7BC
:1020A0008DFFF8BD2046FFF789FF6564F8BD266BFC
:1020B0002023012E7DD1C6067BD5D60679D50868AA
:1020C0004868009048694FF00206400641D5E16B30
:1020D000086840680004000CE8D0A28D8242E5D96F
:1020E000E085C869B0F5807F2DD020680C3050E8BD
:1020F000001F21F4807140E80012002AF5D1206809
:10210000143050E8001F21F0010140E80012002ABD
:10211000F5D12068143050E8001F21F0400140E85C
:102120000012002AF5D184F84230256320680C3073
:1021300050E8001F21F0100140E80012002AF5D1FC
:10214000E06BFEF733FB6663A08DE18D401A81B230
:102150002AE0A08DE18D401A81B2E08D0028A5D043
:102160000029A3D022680C3252E8000F20F49070AE
:1021700042E80007002FF5D12068143050E8002F06
:1021800022F0010240E80027002FF5D184F8423008
:10219000256320680C3050E8002F22F0100240E840
:1021A0000023002BF5D166632046FFF7CEFEF8BD75
:1021B000FFE705062BD5150629D594F841002128FF
:1021C000F5D1A068B0F5805F01D12069B0B1206A77
:1021D000411C2162216800784860E08C401E0004A8
:1021E000000CE084E3D12068C16821F08001C16067
:1021F0002068C16841F04001C160D8E7206A0088CA
:10220000C0F308004860206A801C2062E5E74006B1
:10221000CDD55006CBD5CA68204622F04002CA6010
:1022200084F8413000F0BAF8C1E70000E129000865
:1022300070B5040004D094F84100002510B106E008
:10224000012070BD84F84050204600F023F824207F
:1022500084F841002068C16821F40051C160204623
:1022600000F0D4FC2068016921F4904101612068EC
:10227000416921F02A0141612068C16841F400519F
:10228000C1606564202084F8410084F842006563E1
:10229000002070BD2DE9F04186B006461421684645
:1022A000FEF730F830493068884259D12F48002471
:1022B000016841F010010160006800F01000059015
:1022C0002A481438016841F001010160006869463C
:1022D00000F0010005904FF4C06000900220CDE9AD
:1022E000010403200390072004902148FEF738FCE6
:1022F000214D20484FF000672860C5E901744FF474
:102300008068C5E903486C61AC61EC612C622846C9
:102310006C62FEF777FB08B1FEF73AF9F563AE633E
:10232000154D144860353030E5E802074020A5E837
:102330001101114845F814496030AC61EC612C6220
:102340006C62FEF75FFB08B1FEF722F9B56300226D
:1023500005212520AE63FEF78DFD2520FEF77CFDCF
:1023600006B0BDE8F0810000001001404438024092
:1023700000000240886402406402002090F842306D
:10238000202B01D00220704721B11AB10023036332
:1023900000F0C2BC01207047704770477047FEE7ED
:1023A0007FB50024154800940194029412490394C7
:1023B00001604FF48031C0E901140461047680F8B3
:1023C00020400F49C0E90A140125C561C46080F8A6
:1023D00030404561FEF790F908B1FEF7D9F8009555
:1023E000CDE9015469460548FEF7D4F8002801D02C
:1023F000FEF7CEF87FBD0000002001405400002011
:102400000100000F194808B5016841F4800101601E
:10241000016801F480010091016841F4001101603C
:102420000068002200F40010009005212F20FEF724
:1024300021FD2F20FEF710FD002205213A20FEF796
:1024400019FD3A20FEF708FD002211464420FEF750
:1024500011FD4420FEF700FD002211464620FEF744
:1024600009FDBDE808404620FEF7F6BC30380240C2
:1024700030B587B014216846FDF744FF1A480024A0
:10248000016841F004010160016801F00401059157
:10249000016841F001010160016801F0010105914D
:1024A000016841F0020101600068104D00F0020077
:1024B0000590002208212846FEF742FC04200090E7
:1024C0004FF44410CDE9010469462846FEF748FB65
:1024D000082000900120CDE90104694628460394B4
:1024E000FEF73EFB07B030BD30380240000002402E
:1024F00030B587B014216846FDF704FF2948002451
:1025000027490594C0E900147F218160FF21C0E9BB
:10251000031444618461FFF7F1F808B1FEF738F85D
:1025200000212048FFF744F845F25005A84234D076
:1025300011208DF8000059208DF8010055208DF8EC
:10254000020003940122694616480494FFF796F9A5
:1025500008B1FEF71DF807208DF8140005208DF84E
:10256000150021208DF8160023208DF81700012278
:1025700005A90C48FFF736F908B1FEF709F8002263
:102580004FF4FA610748FFF71DF808B1FEF700F8AD
:102590002A4600210348FFF710F807B030BD0000BD
:1025A000002800409C000020104810B50E49016032
:1025B0004FF482714160002102228160C0E9031260
:1025C000012242615202C0E9062101624162816238
:1025D0000A21C162FFF7CEF9002803D0BDE8104000
:1025E000FDF7D6BF10BD000000300140BC00002048
:1025F00010B58AB0002407941C2168460894FDF7A2
:1026000081FE1648144901606321C0E901144FF4AA
:102610009671C0E903148461FFF729FC08B1FDF746
:10262000B7FF079407A90D480894FFF755FA08B1BA
:10263000FDF7AEFF6020CDE9000402940822694650
:1026400006480494FFF7ADFB08B1FDF7A1FF03486E
:10265000FFF77EFB0AB010BD0004004074010020AB
:102660000C4810B50A4901604FF4E1314160002186
:1026700081600C22C160C0E904128161C161FFF771
:10268000D7FD002803D0BDE81040FDF781BF10BD85
:10269000001001401C020020FEE7FEE7002102E0DE
:1026A0000A38C0B2491C0A28FAD2090740EA116068
:1026B000704700002DE9F041044600680025C1681C
:1026C000490618D4C16841F08001C160FEF73EFBA5
:1026D00006464FF47A78042707E000BFFEF736FB82
:1026E000801B404501D9677701252068C0684006F6
:1026F00001D4002DF2D02846BDE8F08170B5044623
:1027000000680025C16821F08001C16020688068F0
:10271000800606D42046FFF711F910B10420607737
:102720000125284670BD00000148FEF7CFBF00001C
:102730009C00002010B500F0E3FB012803D0BDE8A9
:10274000104000F0C7BB10BD30B593B030216846D3
:10275000FDF7D8FD14210CA8FDF7D4FD1D48002479
:10276000016841F080510160006800F080501190D4
:102770001948016841F4404101600068102100F4EB
:10278000404011900A2000900120CDE9030102256C
:10279000CDE905050820CDE907406420CDE909050C
:1027A00004200B906846FEF74DFD08B172B6FEE7B7
:1027B0000F20CDE90C054FF48050CDE90E400321E8
:1027C0000CA81094FEF732FC002801D072B6FEE788
:1027D00013B030BD4038024000700040024801682C
:1027E00041F470010160704788ED00E00148FFF797
:1027F00016BA000040030020F0B50268204B214CBF
:102800009F03214D214E984207D0B84205D0A042E7
:1028100003D0A84201D0B04204D122F0700C4A6823
:1028200042EA0C02984210D0B8420ED0A0420CD01E
:10283000A8420AD0B04208D0154CA04205D0154C91
:10284000A04202D0144CA04203D122F44074CA68C2
:1028500022434C6922F08002224302608A68C262ED
:102860000A688262984201D10969016301214161CC
:102870000169C90703D0016921F001010161F0BDBF
:10288000000001400004004000080040000C00402F
:1028900000400140004401400048014030B5036A57
:1028A000026A22F0010202624268846924F0730520
:1028B0000C682C4323F002058B682B430A4DA84279
:1028C0000BD123F00805CB6822F440722B434D69ED
:1028D00023F0040315438A692A43426084614968EE
:1028E0004163036230BD00000000014030B5026A60
:1028F000036A23F010030362436884690D6824F4BB
:10290000E64444EA05248D6822F0200242EA0512DA
:102910000B4DA8420ED1CD6822F0800242EA05128A
:102920004D6923F4406343EA85038D6922F0400238
:1029300043EA85034360846149688163026230BD74
:102940000000014030B5036A026A22F4807202621C
:102950004268C46923F4007324F073050C682C43A7
:102960008D6843EA05230C4DA8420ED1CD6823F4AF
:10297000006343EA05234D6922F4405242EA0512FE
:102980008D6923F4806342EA05124260C46149689C
:10299000C163036230BD00000000014030B5046A2D
:1029A000026A22F4805202624268C3690D6823F40D
:1029B000E64343EA05238D6824F4005444EA0534D1
:1029C000064DA84204D14D6922F4804242EA8512A4
:1029D0004260C36149680164046230BD0000014087
:1029E00010B5806B0021C185C184FFF7E7FA10BDE7
:1029F00070B5846B2068406994F84110C0F3C01032
:102A00000025212904D118B1E584204600F08EF874
:102A10002068406994F84210C0F38010222904D144
:102A200018B1E585204600F05AF8606C40F01000BF
:102A300060642046FFF7C2FA70BD10B50146806B96
:102A4000096809684FF00002C9052ED4C2850168E3
:102A50000C3151E8003F23F4807341E80034002C2E
:102A6000F5D10168143151E8003F23F0010341E83A
:102A70000034002CF5D10168143151E8003F23F0F7
:102A8000400341E80034002CF5D1202180F84210A9
:102A9000016B012909D101680C3151E8003F23F095
:102AA000100341E80034002CF5D14263016B012989
:102AB00002D0FFF771FC10BD818DFFF746FA10BD03
:102AC00010B5806B01214163016B012902D0FFF732
:102AD00064FC10BD818D4908FFF737FA10BD01680D
:102AE0000C3151E8002F22F4907241E80023002BB2
:102AF000F5D10168143151E8002F22F0010241E8BC
:102B00000023002BF5D1016B012909D101680C319B
:102B100051E8002F22F0100241E80023002BF5D1EC
:102B2000202180F8421000210163704701680C31B8
:102B300051E8002F22F0C00241E80023002BF5D11C
:102B4000202180F84110704708B590F842102229E2
:102B500001D0022008BD82684FF480539A4201D10F
:102B6000016921B1816A9A421BD04AB10AE0026828
:102B7000816A5268C2F308020A80816A891C08E0EF
:102B8000026972B10268526802F07F020A70816ABB
:102B9000491C8162C18D491E0904090CC18503D0FD
:102BA0001BE002685268F1E70168CA6822F020025F
:102BB000CA600168CA6822F48072CA6001684A6902
:102BC00022F001024A61202180F842100021416375
:102BD000026B012A03D0FFF7DFFB002008BD016371
:102BE00001680C3151E8002F22F0100241E8002367
:102BF000002BF5D101680A68D20602D50A68496837
:102C00000091818DFFF7A1F9E7E7000070B5044658
:102C100000680169E26821F44051114301612169B2
:102C2000A068E26908436169114308432168CA68E2
:102C300049F20C639A430243CA6020684169A26961
:102C400021F440711143416131492068884202D02A
:102C50003049884202D1FEF7B3FA01E0FEF7A0FA4C
:102C6000E2690023192164253226B2F5004F62681B
:102C700028D0A0FB0101930F9200FDF70BFB01464A
:102C8000B0FBF5F06FF01802504301EB800006EB4B
:102C90000010B0FBF5F000F0F002B1FBF5F002EB34
:102CA0000012B1FBF5F06FF01803584301EB800000
:102CB00006EB0010B0FBF5F000F00F0021681044A7
:102CC000886070BDA0FB010192185B41FDF7E2FA3C
:102CD0000146B0FBF5F00201B1FBF5F06FF018030F
:102CE000584301EB800006EBC000B0FBF5F000F0AC
:102CF000F80002EB4002B1FBF5F0584301EB800015
:102D000006EBC000B0FBF5F000F00700D6E70000CE
:102D1000001001400014014038B5816204468285EC
:102D2000002013466064222284F84220E56B1B4A8F
:102D3000EA63E56B1A4A2A64E56B1A4AEA64E26BB5
:102D400010650A462168E06B091DFDF7C5FE206885
:102D5000016840680090206948B120680C3050E854
:102D6000001F41F4807140E80012002AF5D120686C
:102D7000143050E8001F41F0010140E80012002A21
:102D8000F5D12068143050E8001F41F0400140E8C0
:102D90000012002AF5D1002038BD00003B2A0008AF
:102DA000C12A0008F12900080C4810B50068016824
:102DB000C943C9060DD40A4A012151706FF01001B0
:102DC00001600648FFF7C2F8192206490348FFF7D9
:102DD000D5FABDE810400148FFF7F2B81C02002008
:102DE0000000002024030020FEE70907090E002848
:102DF00004DB00F1E02080F80014704700F00F00C1
:102E000000F1E02080F8141D704702E008C8121F8E
:102E100008C1002AFAD170477047002001E001C1C3
:102E2000121F002AFBD17047FDF79EFFFFF78CFCB5
:102E3000FFF71EFBFFF7E6FAFFF7B2FAFFF710FC09
:102E4000FFF7B2FBFFF7D4FBFFF752FBFEE70000F2
:102E50000548816B096821B1816BC9680968816285
:102E600070474FF0FF31FAE7140000207047000070
:102E7000164810B5416B11B10121C16110BD00218F
:102E8000C1610169124A01E0B9B1491E01EB810338
:102E900052F82330002BF7D001EB810302EB8302C1
:102EA00002F1080453685B685360A34201D15B6878
:102EB0005360DA680260016110BD502080F3118810
:102EC000BFF34F8FBFF36F8FFEE7000014000020A9
:102ED0008803002010B5502080F31188BFF34F8F76
:102EE000BFF36F8F00F01AF818B104494FF080500B
:102EF0000860002080F3118810BD000004ED00E0A0
:102F00000548416919B1406B18B100207047012094
:102F10007047022070470000140000202DE9F041A6
:102F20004E4C0026606B38B1A069401CA061FFF7D1
:102F30009DFF3046BDE8F081E5686D1CE56013D16A
:102F4000A06B006838B1502080F31188BFF34F8F19
:102F5000BFF36F8FFEE7A06BE16BA163E063206AB4
:102F6000401C2062FFF774FFA16A3D488D420FD3D9
:102F70004FF0000EA16B096839B1A16BC968C9682F
:102F80004A68954210D2A26202E04FF0FF31A1627E
:102F90002168C96A01EB810150F82100012800D99C
:102FA0000126A069F0B352E0D1E902274B6997608E
:102FB000D1E902277A605F680A1D974201D1CF6884
:102FC0005F60C1F814E01F687F1E1F60D1F828C041
:102FD000BCF1000F15D0D1E907379F60D1E9073761
:102FE0007B60DCF8047001F118039F4202D10B6A88
:102FF000CCF80430C1F828E0DCF800305B1ECCF8D7
:103000000030CB6A2769BB4200D9236103EB8303FD
:1030100000EB83035B688B609F68CF609F687A607A
:103020009A6000E011E0CA6A02EB820200EB8203C0
:103030004B6150F822305B1C40F82230C96A22688C
:10304000D26A914296D9012694E7FFF70FFFE06913
:1030500000283FF46EAF01266BE70000140000204B
:10306000880300200006101600061016000000005D
:103070000000000001020304060708090000000028
:1030800001020304A43000080000002054000000E6
:103090000A2E0008F830000854000020FC0B000045
:1030A0001A2E0008000000000100000010000000BF
:1030B000000000000024F4000000000000000000F8
:1030C0000000000000000000000000000000000000
:1030D00000000000000000000000000000000000F0
:1030E00000000000000000003700000000000000A9
:0830F0000000000000000000D8
:040000050800019955
:00000001FF
